{
  "contractName": "Zarim",
  "abi": [
    {
      "anonymous": false,
      "inputs": [
        {
          "indexed": true,
          "internalType": "address",
          "name": "_learner",
          "type": "address"
        },
        {
          "indexed": true,
          "internalType": "address",
          "name": "_speaker",
          "type": "address"
        },
        {
          "indexed": false,
          "internalType": "uint256",
          "name": "_duration",
          "type": "uint256"
        },
        {
          "indexed": true,
          "internalType": "uint256",
          "name": "_total",
          "type": "uint256"
        }
      ],
      "name": "CloseSession",
      "type": "event"
    },
    {
      "anonymous": false,
      "inputs": [
        {
          "indexed": true,
          "internalType": "address",
          "name": "_learner",
          "type": "address"
        },
        {
          "indexed": true,
          "internalType": "address",
          "name": "_speaker",
          "type": "address"
        }
      ],
      "name": "EnterSession",
      "type": "event"
    },
    {
      "anonymous": false,
      "inputs": [
        {
          "indexed": true,
          "internalType": "address",
          "name": "_learner",
          "type": "address"
        },
        {
          "indexed": true,
          "internalType": "uint8",
          "name": "_language",
          "type": "uint8"
        },
        {
          "indexed": true,
          "internalType": "uint256",
          "name": "_price",
          "type": "uint256"
        }
      ],
      "name": "OpenSession",
      "type": "event"
    },
    {
      "anonymous": false,
      "inputs": [
        {
          "indexed": true,
          "internalType": "address",
          "name": "_speaker",
          "type": "address"
        },
        {
          "indexed": true,
          "internalType": "uint8",
          "name": "_country",
          "type": "uint8"
        },
        {
          "indexed": true,
          "internalType": "uint8[]",
          "name": "_languages",
          "type": "uint8[]"
        }
      ],
      "name": "Register",
      "type": "event"
    },
    {
      "inputs": [
        {
          "internalType": "address",
          "name": "",
          "type": "address"
        }
      ],
      "name": "balanceOf",
      "outputs": [
        {
          "internalType": "uint256",
          "name": "",
          "type": "uint256"
        }
      ],
      "stateMutability": "view",
      "type": "function",
      "constant": true
    },
    {
      "inputs": [
        {
          "internalType": "address",
          "name": "",
          "type": "address"
        },
        {
          "internalType": "uint256",
          "name": "",
          "type": "uint256"
        }
      ],
      "name": "closedSessions",
      "outputs": [
        {
          "internalType": "address",
          "name": "speaker",
          "type": "address"
        },
        {
          "internalType": "uint8",
          "name": "language",
          "type": "uint8"
        },
        {
          "internalType": "uint256",
          "name": "price",
          "type": "uint256"
        },
        {
          "internalType": "uint256",
          "name": "start",
          "type": "uint256"
        },
        {
          "internalType": "uint256",
          "name": "maxDuration",
          "type": "uint256"
        },
        {
          "internalType": "bool",
          "name": "open",
          "type": "bool"
        }
      ],
      "stateMutability": "view",
      "type": "function",
      "constant": true
    },
    {
      "inputs": [
        {
          "internalType": "address",
          "name": "",
          "type": "address"
        },
        {
          "internalType": "uint8",
          "name": "",
          "type": "uint8"
        }
      ],
      "name": "isNative",
      "outputs": [
        {
          "internalType": "bool",
          "name": "",
          "type": "bool"
        }
      ],
      "stateMutability": "view",
      "type": "function",
      "constant": true
    },
    {
      "inputs": [
        {
          "internalType": "uint8",
          "name": "",
          "type": "uint8"
        },
        {
          "internalType": "uint256",
          "name": "",
          "type": "uint256"
        }
      ],
      "name": "nativeSpeakers",
      "outputs": [
        {
          "internalType": "address",
          "name": "",
          "type": "address"
        }
      ],
      "stateMutability": "view",
      "type": "function",
      "constant": true
    },
    {
      "inputs": [
        {
          "internalType": "address",
          "name": "",
          "type": "address"
        }
      ],
      "name": "sessions",
      "outputs": [
        {
          "internalType": "address",
          "name": "speaker",
          "type": "address"
        },
        {
          "internalType": "uint8",
          "name": "language",
          "type": "uint8"
        },
        {
          "internalType": "uint256",
          "name": "price",
          "type": "uint256"
        },
        {
          "internalType": "uint256",
          "name": "start",
          "type": "uint256"
        },
        {
          "internalType": "uint256",
          "name": "maxDuration",
          "type": "uint256"
        },
        {
          "internalType": "bool",
          "name": "open",
          "type": "bool"
        }
      ],
      "stateMutability": "view",
      "type": "function",
      "constant": true
    },
    {
      "inputs": [
        {
          "internalType": "address",
          "name": "",
          "type": "address"
        }
      ],
      "name": "speakers",
      "outputs": [
        {
          "internalType": "address",
          "name": "id",
          "type": "address"
        },
        {
          "internalType": "uint8",
          "name": "age",
          "type": "uint8"
        },
        {
          "internalType": "uint8",
          "name": "gender",
          "type": "uint8"
        },
        {
          "internalType": "uint8",
          "name": "country",
          "type": "uint8"
        }
      ],
      "stateMutability": "view",
      "type": "function",
      "constant": true
    },
    {
      "inputs": [
        {
          "internalType": "uint8",
          "name": "_age",
          "type": "uint8"
        },
        {
          "internalType": "uint8",
          "name": "_gender",
          "type": "uint8"
        },
        {
          "internalType": "uint8",
          "name": "_country",
          "type": "uint8"
        },
        {
          "internalType": "uint8[]",
          "name": "_languages",
          "type": "uint8[]"
        }
      ],
      "name": "registerSpeaker",
      "outputs": [],
      "stateMutability": "nonpayable",
      "type": "function"
    },
    {
      "inputs": [
        {
          "internalType": "uint8",
          "name": "_language",
          "type": "uint8"
        }
      ],
      "name": "getSpeakersCount",
      "outputs": [
        {
          "internalType": "uint256",
          "name": "",
          "type": "uint256"
        }
      ],
      "stateMutability": "view",
      "type": "function",
      "constant": true
    },
    {
      "inputs": [],
      "name": "deposit",
      "outputs": [],
      "stateMutability": "payable",
      "type": "function",
      "payable": true
    },
    {
      "inputs": [],
      "name": "withdraw",
      "outputs": [],
      "stateMutability": "nonpayable",
      "type": "function"
    },
    {
      "inputs": [
        {
          "internalType": "uint8",
          "name": "_language",
          "type": "uint8"
        },
        {
          "internalType": "uint256",
          "name": "_price",
          "type": "uint256"
        },
        {
          "internalType": "uint256",
          "name": "_duration",
          "type": "uint256"
        }
      ],
      "name": "openSession",
      "outputs": [],
      "stateMutability": "nonpayable",
      "type": "function"
    },
    {
      "inputs": [
        {
          "internalType": "address",
          "name": "_learner",
          "type": "address"
        }
      ],
      "name": "enterSession",
      "outputs": [],
      "stateMutability": "nonpayable",
      "type": "function"
    },
    {
      "inputs": [
        {
          "internalType": "address",
          "name": "_learner",
          "type": "address"
        }
      ],
      "name": "closeSession",
      "outputs": [],
      "stateMutability": "nonpayable",
      "type": "function"
    },
    {
      "inputs": [
        {
          "internalType": "address",
          "name": "_learner",
          "type": "address"
        }
      ],
      "name": "getClosedSessionsCount",
      "outputs": [
        {
          "internalType": "uint256",
          "name": "",
          "type": "uint256"
        }
      ],
      "stateMutability": "view",
      "type": "function",
      "constant": true
    }
  ],
  "bytecode": "0x608060405234801561001057600080fd5b50611e96806100206000396000f3fe6080604052600436106100dd5760003560e01c806347a7381d1161007f578063a793483b11610059578063a793483b146104cd578063bcf4e497146105b9578063d0e30db01461062b578063e798963a14610635576100dd565b806347a7381d14610369578063522976ee1461041657806370a0823114610468576100dd565b806327be24ee116100bb57806327be24ee1461020c5780633ccfd60b1461025d578063431a1b9714610274578063454296ff14610317576100dd565b80630146e0ee146100e257806323421dd9146101335780632403286e14610198575b600080fd5b3480156100ee57600080fd5b506101316004803603602081101561010557600080fd5b81019080803573ffffffffffffffffffffffffffffffffffffffff1690602001909291905050506106ce565b005b34801561013f57600080fd5b506101826004803603602081101561015657600080fd5b81019080803573ffffffffffffffffffffffffffffffffffffffff169060200190929190505050610a6f565b6040518082815260200191505060405180910390f35b3480156101a457600080fd5b506101f4600480360360408110156101bb57600080fd5b81019080803573ffffffffffffffffffffffffffffffffffffffff169060200190929190803560ff169060200190929190505050610abb565b60405180821515815260200191505060405180910390f35b34801561021857600080fd5b5061025b6004803603602081101561022f57600080fd5b81019080803573ffffffffffffffffffffffffffffffffffffffff169060200190929190505050610aea565b005b34801561026957600080fd5b50610272611147565b005b34801561028057600080fd5b506102c36004803603602081101561029757600080fd5b81019080803573ffffffffffffffffffffffffffffffffffffffff16906020019092919050505061121a565b604051808773ffffffffffffffffffffffffffffffffffffffff1681526020018660ff1681526020018581526020018481526020018381526020018215158152602001965050505050505060405180910390f35b34801561032357600080fd5b506103536004803603602081101561033a57600080fd5b81019080803560ff169060200190929190505050611290565b6040518082815260200191505060405180910390f35b34801561037557600080fd5b506103c26004803603604081101561038c57600080fd5b81019080803573ffffffffffffffffffffffffffffffffffffffff169060200190929190803590602001909291905050506112b6565b604051808773ffffffffffffffffffffffffffffffffffffffff1681526020018660ff1681526020018581526020018481526020018381526020018215158152602001965050505050505060405180910390f35b34801561042257600080fd5b506104666004803603606081101561043957600080fd5b81019080803560ff1690602001909291908035906020019092919080359060200190929190505050611346565b005b34801561047457600080fd5b506104b76004803603602081101561048b57600080fd5b81019080803573ffffffffffffffffffffffffffffffffffffffff16906020019092919050505061165c565b6040518082815260200191505060405180910390f35b3480156104d957600080fd5b506105b7600480360360808110156104f057600080fd5b81019080803560ff169060200190929190803560ff169060200190929190803560ff1690602001909291908035906020019064010000000081111561053457600080fd5b82018360208201111561054657600080fd5b8035906020019184602083028401116401000000008311171561056857600080fd5b919080806020026020016040519081016040528093929190818152602001838360200280828437600081840152601f19601f820116905080830192505050505050509192919290505050611674565b005b3480156105c557600080fd5b506105ff600480360360408110156105dc57600080fd5b81019080803560ff16906020019092919080359060200190929190505050611a54565b604051808273ffffffffffffffffffffffffffffffffffffffff16815260200191505060405180910390f35b610633611a9f565b005b34801561064157600080fd5b506106846004803603602081101561065857600080fd5b81019080803573ffffffffffffffffffffffffffffffffffffffff169060200190929190505050611b36565b604051808573ffffffffffffffffffffffffffffffffffffffff1681526020018460ff1681526020018360ff1681526020018260ff16815260200194505050505060405180910390f35b80600460008273ffffffffffffffffffffffffffffffffffffffff1673ffffffffffffffffffffffffffffffffffffffff16815260200190815260200160002060040160009054906101000a900460ff16610791576040517f08c379a000000000000000000000000000000000000000000000000000000000815260040180806020018281038252601b8152602001807f4c6561726e657220686173206e6f206f70656e2073657373696f6e000000000081525060200191505060405180910390fd5b3373ffffffffffffffffffffffffffffffffffffffff166000803373ffffffffffffffffffffffffffffffffffffffff1673ffffffffffffffffffffffffffffffffffffffff16815260200190815260200160002060000160009054906101000a900473ffffffffffffffffffffffffffffffffffffffff1673ffffffffffffffffffffffffffffffffffffffff1614610893576040517f08c379a00000000000000000000000000000000000000000000000000000000081526004018080602001828103825260198152602001807f537065616b6572206973206e6f7420726567697374657265640000000000000081525060200191505060405180910390fd5b6000600460008473ffffffffffffffffffffffffffffffffffffffff1673ffffffffffffffffffffffffffffffffffffffff168152602001908152602001600020905060011515600260003373ffffffffffffffffffffffffffffffffffffffff1673ffffffffffffffffffffffffffffffffffffffff16815260200190815260200160002060008360000160149054906101000a900460ff1660ff1660ff16815260200190815260200160002060009054906101000a900460ff161515146109c4576040517f08c379a00000000000000000000000000000000000000000000000000000000081526004018080602001828103825260158152602001807f537065616b6572206973206e6f74206e6174697665000000000000000000000081525060200191505060405180910390fd5b338160000160006101000a81548173ffffffffffffffffffffffffffffffffffffffff021916908373ffffffffffffffffffffffffffffffffffffffff1602179055504281600201819055503373ffffffffffffffffffffffffffffffffffffffff168373ffffffffffffffffffffffffffffffffffffffff167f6151675afe34cb8df928dac22e5d90b8b75a05c4fe760689b556ad709f40c61560405160405180910390a3505050565b6000600560008373ffffffffffffffffffffffffffffffffffffffff1673ffffffffffffffffffffffffffffffffffffffff168152602001908152602001600020805490509050919050565b60026020528160005260406000206020528060005260406000206000915091509054906101000a900460ff1681565b80600460008273ffffffffffffffffffffffffffffffffffffffff1673ffffffffffffffffffffffffffffffffffffffff16815260200190815260200160002060040160009054906101000a900460ff16610bad576040517f08c379a000000000000000000000000000000000000000000000000000000000815260040180806020018281038252601b8152602001807f4c6561726e657220686173206e6f206f70656e2073657373696f6e000000000081525060200191505060405180910390fd5b610bb5611dc5565b600460008473ffffffffffffffffffffffffffffffffffffffff1673ffffffffffffffffffffffffffffffffffffffff1681526020019081526020016000206040518060c00160405290816000820160009054906101000a900473ffffffffffffffffffffffffffffffffffffffff1673ffffffffffffffffffffffffffffffffffffffff1673ffffffffffffffffffffffffffffffffffffffff1681526020016000820160149054906101000a900460ff1660ff1660ff1681526020016001820154815260200160028201548152602001600382015481526020016004820160009054906101000a900460ff16151515158152505090508273ffffffffffffffffffffffffffffffffffffffff163373ffffffffffffffffffffffffffffffffffffffff161480610d165750806000015173ffffffffffffffffffffffffffffffffffffffff163373ffffffffffffffffffffffffffffffffffffffff16145b610d6b576040517f08c379a0000000000000000000000000000000000000000000000000000000008152600401808060200182810382526029815260200180611e386029913960400191505060405180910390fd5b600080600073ffffffffffffffffffffffffffffffffffffffff16836000015173ffffffffffffffffffffffffffffffffffffffff1614610f0b57610dbd836060015142611bad90919063ffffffff16565b9150610dd6828460400151611bf790919063ffffffff16565b9050610e2a81600360008873ffffffffffffffffffffffffffffffffffffffff1673ffffffffffffffffffffffffffffffffffffffff16815260200190815260200160002054611bad90919063ffffffff16565b600360008773ffffffffffffffffffffffffffffffffffffffff1673ffffffffffffffffffffffffffffffffffffffff16815260200190815260200160002081905550610ec38160036000866000015173ffffffffffffffffffffffffffffffffffffffff1673ffffffffffffffffffffffffffffffffffffffff16815260200190815260200160002054611c7d90919063ffffffff16565b60036000856000015173ffffffffffffffffffffffffffffffffffffffff1673ffffffffffffffffffffffffffffffffffffffff168152602001908152602001600020819055505b60008360a0019015159081151581525050600560008673ffffffffffffffffffffffffffffffffffffffff1673ffffffffffffffffffffffffffffffffffffffff16815260200190815260200160002083908060018154018082558091505060019003906000526020600020906005020160009091909190915060008201518160000160006101000a81548173ffffffffffffffffffffffffffffffffffffffff021916908373ffffffffffffffffffffffffffffffffffffffff16021790555060208201518160000160146101000a81548160ff021916908360ff16021790555060408201518160010155606082015181600201556080820151816003015560a08201518160040160006101000a81548160ff0219169083151502179055505050600460008673ffffffffffffffffffffffffffffffffffffffff1673ffffffffffffffffffffffffffffffffffffffff168152602001908152602001600020600080820160006101000a81549073ffffffffffffffffffffffffffffffffffffffff02191690556000820160146101000a81549060ff02191690556001820160009055600282016000905560038201600090556004820160006101000a81549060ff0219169055505080836000015173ffffffffffffffffffffffffffffffffffffffff168673ffffffffffffffffffffffffffffffffffffffff167f4572d1e81607ba21a7c488ba6b799b85f1da293da60c105da550dc8c91c6a48c856040518082815260200191505060405180910390a45050505050565b6000600360003373ffffffffffffffffffffffffffffffffffffffff1673ffffffffffffffffffffffffffffffffffffffff1681526020019081526020016000205490506000600360003373ffffffffffffffffffffffffffffffffffffffff1673ffffffffffffffffffffffffffffffffffffffff168152602001908152602001600020819055503373ffffffffffffffffffffffffffffffffffffffff166108fc829081150290604051600060405180830381858888f19350505050158015611216573d6000803e3d6000fd5b5050565b60046020528060005260406000206000915090508060000160009054906101000a900473ffffffffffffffffffffffffffffffffffffffff16908060000160149054906101000a900460ff16908060010154908060020154908060030154908060040160009054906101000a900460ff16905086565b6000600160008360ff1660ff168152602001908152602001600020805490509050919050565b600560205281600052604060002081815481106112cf57fe5b9060005260206000209060050201600091509150508060000160009054906101000a900473ffffffffffffffffffffffffffffffffffffffff16908060000160149054906101000a900460ff16908060010154908060020154908060030154908060040160009054906101000a900460ff16905086565b600460003373ffffffffffffffffffffffffffffffffffffffff1673ffffffffffffffffffffffffffffffffffffffff16815260200190815260200160002060040160009054906101000a900460ff1615611409576040517f08c379a000000000000000000000000000000000000000000000000000000000815260040180806020018281038252601b8152602001807f4c6561726e65722068617320616e206f70656e2073657373696f6e000000000081525060200191505060405180910390fd5b61141c8183611bf790919063ffffffff16565b600360003373ffffffffffffffffffffffffffffffffffffffff1673ffffffffffffffffffffffffffffffffffffffff1681526020019081526020016000205410156114d0576040517f08c379a00000000000000000000000000000000000000000000000000000000081526004018080602001828103825260148152602001807f496e73756666696369656e742062616c616e636500000000000000000000000081525060200191505060405180910390fd5b6114d8611dc5565b6040518060c00160405280600073ffffffffffffffffffffffffffffffffffffffff1681526020018560ff1681526020018481526020016000815260200183815260200160011515815250905080600460003373ffffffffffffffffffffffffffffffffffffffff1673ffffffffffffffffffffffffffffffffffffffff16815260200190815260200160002060008201518160000160006101000a81548173ffffffffffffffffffffffffffffffffffffffff021916908373ffffffffffffffffffffffffffffffffffffffff16021790555060208201518160000160146101000a81548160ff021916908360ff16021790555060408201518160010155606082015181600201556080820151816003015560a08201518160040160006101000a81548160ff021916908315150217905550905050828460ff163373ffffffffffffffffffffffffffffffffffffffff167f7cb837bae2005b3e60cc80e56987214ed7272c91d36b20db994b007206907fa760405160405180910390a450505050565b60036020528060005260406000206000915090505481565b600073ffffffffffffffffffffffffffffffffffffffff166000803373ffffffffffffffffffffffffffffffffffffffff1673ffffffffffffffffffffffffffffffffffffffff16815260200190815260200160002060000160009054906101000a900473ffffffffffffffffffffffffffffffffffffffff1673ffffffffffffffffffffffffffffffffffffffff1614611777576040517f08c379a000000000000000000000000000000000000000000000000000000000815260040180806020018281038252601d8152602001807f537065616b657220697320616c7265616479207265676973746572656400000081525060200191505060405180910390fd5b60405180608001604052803373ffffffffffffffffffffffffffffffffffffffff1681526020018560ff1681526020018460ff1681526020018360ff168152506000803373ffffffffffffffffffffffffffffffffffffffff1673ffffffffffffffffffffffffffffffffffffffff16815260200190815260200160002060008201518160000160006101000a81548173ffffffffffffffffffffffffffffffffffffffff021916908373ffffffffffffffffffffffffffffffffffffffff16021790555060208201518160000160146101000a81548160ff021916908360ff16021790555060408201518160000160156101000a81548160ff021916908360ff16021790555060608201518160000160166101000a81548160ff021916908360ff16021790555090505060005b81518160ff1610156119c3576000828260ff16815181106118c257fe5b60200260200101519050600160008260ff1660ff168152602001908152602001600020339080600181540180825580915050600190039060005260206000200160009091909190916101000a81548173ffffffffffffffffffffffffffffffffffffffff021916908373ffffffffffffffffffffffffffffffffffffffff1602179055506001600260003373ffffffffffffffffffffffffffffffffffffffff1673ffffffffffffffffffffffffffffffffffffffff16815260200190815260200160002060008360ff1660ff16815260200190815260200160002060006101000a81548160ff0219169083151502179055505080806001019150506118a5565b508060405180828051906020019060200280838360005b838110156119f55780820151818401526020810190506119da565b5050505090500191505060405180910390208260ff163373ffffffffffffffffffffffffffffffffffffffff167f4db0815e6f238c1c8229bc3da9023043b6d3dea7c5e6f8ecc3c50e8c77dcffb760405160405180910390a450505050565b60016020528160005260406000208181548110611a6d57fe5b906000526020600020016000915091509054906101000a900473ffffffffffffffffffffffffffffffffffffffff1681565b611af134600360003373ffffffffffffffffffffffffffffffffffffffff1673ffffffffffffffffffffffffffffffffffffffff16815260200190815260200160002054611c7d90919063ffffffff16565b600360003373ffffffffffffffffffffffffffffffffffffffff1673ffffffffffffffffffffffffffffffffffffffff16815260200190815260200160002081905550565b60006020528060005260406000206000915090508060000160009054906101000a900473ffffffffffffffffffffffffffffffffffffffff16908060000160149054906101000a900460ff16908060000160159054906101000a900460ff16908060000160169054906101000a900460ff16905084565b6000611bef83836040518060400160405280601e81526020017f536166654d6174683a207375627472616374696f6e206f766572666c6f770000815250611d05565b905092915050565b600080831415611c0a5760009050611c77565b6000828402905082848281611c1b57fe5b0414611c72576040517f08c379a0000000000000000000000000000000000000000000000000000000008152600401808060200182810382526021815260200180611e176021913960400191505060405180910390fd5b809150505b92915050565b600080828401905083811015611cfb576040517f08c379a000000000000000000000000000000000000000000000000000000000815260040180806020018281038252601b8152602001807f536166654d6174683a206164646974696f6e206f766572666c6f77000000000081525060200191505060405180910390fd5b8091505092915050565b6000838311158290611db2576040517f08c379a00000000000000000000000000000000000000000000000000000000081526004018080602001828103825283818151815260200191508051906020019080838360005b83811015611d77578082015181840152602081019050611d5c565b50505050905090810190601f168015611da45780820380516001836020036101000a031916815260200191505b509250505060405180910390fd5b5060008385039050809150509392505050565b6040518060c00160405280600073ffffffffffffffffffffffffffffffffffffffff168152602001600060ff168152602001600081526020016000815260200160008152602001600015158152509056fe536166654d6174683a206d756c7469706c69636174696f6e206f766572666c6f774f6e6c79206c6561726e6572206f7220737065616b65722063616e20636c6f73652073657373696f6ea2646970667358221220749d8588204d374d94c66da05a9bde3611072f18add09c2a03b280f211a54b9e64736f6c634300060c0033",
  "source": "// SPDX-License-Identifier: MIT\npragma solidity >=0.4.21 <0.7.0;\n\nimport \"@openzeppelin/contracts/math/SafeMath.sol\";\n\ncontract Zarim {\n    using SafeMath for uint256;\n\n    mapping(address => Speaker) public speakers;\n    mapping(uint8 => address[]) public nativeSpeakers;\n    mapping(address => mapping(uint8 => bool)) public isNative;\n    mapping(address => uint256) public balanceOf;\n    mapping(address => Session) public sessions;\n    mapping(address => Session[]) public closedSessions;\n\n    struct Speaker {\n        address id;\n        uint8 age;\n        uint8 gender;\n        uint8 country;\n    }\n\n    struct Session {\n        address speaker;\n        uint8 language;\n        uint256 price;\n        uint256 start;\n        uint256 maxDuration;\n        bool open;\n    }\n\n    event Register(\n        address indexed _speaker,\n        uint8 indexed _country,\n        uint8[] indexed _languages\n    );\n\n    event OpenSession(\n        address indexed _learner,\n        uint8 indexed _language,\n        uint256 indexed _price\n    );\n\n    event EnterSession(address indexed _learner, address indexed _speaker);\n\n    event CloseSession(\n        address indexed _learner,\n        address indexed _speaker,\n        uint256 _duration,\n        uint256 indexed _total\n    );\n\n    modifier hasOpenSession(address _learner) {\n        require(sessions[_learner].open, \"Learner has no open session\");\n        _;\n    }\n\n    modifier noOpenSession() {\n        require(!sessions[msg.sender].open, \"Learner has an open session\");\n        _;\n    }\n\n    function registerSpeaker(\n        uint8 _age,\n        uint8 _gender,\n        uint8 _country,\n        uint8[] memory _languages\n    ) public {\n        require(\n            speakers[msg.sender].id == address(0x0),\n            \"Speaker is already registered\"\n        );\n\n        speakers[msg.sender] = Speaker({\n            id: msg.sender,\n            age: _age,\n            gender: _gender,\n            country: _country\n        });\n\n        for (uint8 i = 0; i < _languages.length; i++) {\n            uint8 language = _languages[i];\n            nativeSpeakers[language].push(msg.sender);\n            isNative[msg.sender][language] = true;\n        }\n\n        emit Register(msg.sender, _country, _languages);\n    }\n\n    function getSpeakersCount(uint8 _language) public view returns (uint256) {\n        return nativeSpeakers[_language].length;\n    }\n\n    function deposit() public payable {\n        balanceOf[msg.sender] = balanceOf[msg.sender].add(msg.value);\n    }\n\n    function withdraw() public {\n        uint256 amount = balanceOf[msg.sender];\n        balanceOf[msg.sender] = 0;\n        msg.sender.transfer(amount);\n    }\n\n    function openSession(\n        uint8 _language,\n        uint256 _price,\n        uint256 _duration\n    ) public noOpenSession {\n        require(\n            balanceOf[msg.sender] >= _price.mul(_duration),\n            \"Insufficient balance\"\n        );\n        Session memory session = Session({\n            speaker: address(0x0),\n            language: _language,\n            price: _price,\n            start: 0,\n            maxDuration: _duration,\n            open: true\n        });\n\n        sessions[msg.sender] = session;\n\n        emit OpenSession(msg.sender, _language, _price);\n    }\n\n    function enterSession(address _learner) public hasOpenSession(_learner) {\n        require(\n            speakers[msg.sender].id == msg.sender,\n            \"Speaker is not registered\"\n        );\n\n        Session storage session = sessions[_learner];\n        require(\n            isNative[msg.sender][session.language] == true,\n            \"Speaker is not native\"\n        );\n        session.speaker = msg.sender;\n        session.start = block.timestamp;\n\n        emit EnterSession(_learner, msg.sender);\n    }\n\n    function closeSession(address _learner) public hasOpenSession(_learner) {\n        Session memory session = sessions[_learner];\n\n        require(\n            msg.sender == _learner || msg.sender == session.speaker,\n            \"Only learner or speaker can close session\"\n        );\n\n        // charge learner for session with a speaker\n        uint256 duration;\n        uint256 total;\n        if (session.speaker != address(0x0)) {\n            duration = block.timestamp.sub(session.start);\n            total = session.price.mul(duration);\n            balanceOf[_learner] = balanceOf[_learner].sub(total);\n            balanceOf[session.speaker] = balanceOf[session.speaker].add(total);\n        }\n\n        session.open = false;\n        closedSessions[_learner].push(session);\n\n        delete sessions[_learner];\n\n        emit CloseSession(_learner, session.speaker, duration, total);\n    }\n\n    function getClosedSessionsCount(address _learner)\n        public\n        view\n        returns (uint256)\n    {\n        return closedSessions[_learner].length;\n    }\n}\n",
  "sourcePath": "/Users/anar/Documents/Ethereum/ConsenSys/final-project/contracts/Zarim.sol",
  "compiler": {
    "name": "solc",
    "version": "0.6.12+commit.27d51765.Emscripten.clang"
  },
  "schemaVersion": "3.0.23",
  "updatedAt": "2020-12-11T02:25:47.077Z",
  "networkType": "ethereum",
  "devdoc": {
    "kind": "dev",
    "methods": {},
    "version": 1
  },
  "userdoc": {
    "kind": "user",
    "methods": {},
    "version": 1
  }
}